:00300002CE
:003040028E
:003080024E
:0030C0020E
:00310002CD
:003140028D
:003180024D
:0031C0020D
:00320002CC
:003240028C
:003280024C
:0032C0020C
:00330002CB
:003340028B
:003380024B
:0033C0020B
:00340002CA
:003440028A
:003480024A
:0034C0020A
:00350002C9
:0035400289
:0035800249
:0035C00209
:00360002C8
:0036400288
:0036800248
:0036C00208
:00370002C7
:0037400287
:0037800247
:0037C00207
:00380002C6
:0038400286
:0038800246
:0038C00206
:00390002C5
:0039400285
:0039800245
:0039C00205
:003A0002C4
:003A400284
:003A800244
:003AC00204
:003B0002C3
:003B400283
:003B800243
:003BC00203
:003C0002C2
:003C400282
:003C800242
:003CC00202
:003D0002C1
:003D400281
:003D800241
:083000008134A5340A34503478
:08300800441840340034003488
:0830100084180434003400347C
:08301800881810340034003464
:08302000981815340034003447
:08302800AD188B3400340034B4
:08303000381976340134003434
:08303800AE1A833401340034A8
:08304000311CD53401340034C9
:08304800061E2C340034003494
:08305000321E9D3400340034EF
:08305800FF3FFF3FFF3FFF3F78
:08306000FF3FFF3FFF3FFF3F70
:08306800FF3FFF3FFF3FFF3F68
:08307000FF3FFF3FFF3FFF3F60
:08307800FF3FFF3FFF3FFF3F58
:08308000FF3FFF3FFF3FFF3F50
:0830880004340134003431343A
:08309000043400340034323432
:0830980004342434F4348034C4
:0830A0000434EE340234033461
:0830A8000434EE34023401345B
:0830B000043430347534073498
:0830B80004341E34003404341A
:0830C00004340F340034053420
:0830C80004340A340034003422
:0830D0000134C03477340834E8
:0830D8000134C434083408344B
:0830E0000434F3340034093418
:0830E8001234083409340934E4
:0830F0000D34023400340934F0
:0830F8000934023400340434F1
:0831000000340334093450349B
:0831080004340134003450349A
:08311000043416340034C0340D
:0831180004340A34003477345A
:083120000434043400341834B7
:08312800043403340034503478
:083130000434F33400340834C8
:083138000134C034773409347E
:0831400002340834093409349B
:0831480003340934C4340334DC
:0831500018340934033409347A
:083158005034033460340634E6
:0831600003346134023404342D
:0831680000340034703404341B
:08317000003400347134043412
:08317800003400347234043409
:08318000003400347334043400
:0831880000340034303404343B
:08319000003400343234043431
:08319800003400343334043428
:0831A00000340034343404341F
:0831A80000340034203404342B
:0831B000003400342134043422
:0831B800003400342234043419
:0831C000003400342334043410
:0831C8000034003451340434DA
:0831D0000034003477340434AC
:0831D8000434003418340434FF
:0831E0000034003408341234FD
:0831E8000334083408340434F8
:0831F0003034753407340D344E
:0831F8000234003408340834ED
:083200000934003405340034E8
:083208000434003400340934E1
:083210001234033409340934BF
:083218000434EE3402340A34E0
:083220000C34023400340934BF
:08322800033403340A340434BA
:083230000534003409341234A6
:083238000834093409340434A0
:08324000013400340A340C349F
:08324800023400340934703433
:0832500070340A340434013427
:0832580000340A340C34023486
:08326000003409343234323429
:083268000A3403340834503429
:0832700004340034003408347A
:083278000334753409340434F9
:08328000013400340B34123458
:0832880051340B340B34043403
:083290003C3400340C34083416
:0832980064340C340C340434DE
:0832A000003400340D34043445
:0832A800283400340E34023416
:0832B0000D340E340E34093414
:0832B80060340E340E340F34B3
:0832C0000C340E340E3404340A
:0832C800323400340C340834E8
:0832D00060340C340C340F349F
:0832D8000E340C340C340E34EA
:0832E0000B340C340C340434EF
:0832E800003400340B341234F1
:0832F00051340B340B3404349B
:0832F8003C3400340D340834AD
:0833000065340D340D34043472
:08330800003400340E340434DB
:08331000283400340F340234AC
:083318000E340F340F340934A8
:0833200061340F340F340F3447
:083328000D340F340F3404349E
:08333000323400340D3408347E
:0833380061340D340D340F3433
:083340000F340D340D340E347E
:083348000B340D340D34043484
:08335000003400340B34123488
:0833580051340B340B34103426
:083360000D340E340E340B3461
:083368000E340E34043400346D
:0833700000340B340C3402346C
:0833780000340E34083408345F
:083380000B340C34023400345C
:083388000E340A340A346134EA
:083390000434013400340B3455
:08339800123451340B340B34E4
:0833A00010340C340E340E341D
:0833A8000B340E340E34043422
:0833B000763400340B340C34B8
:0833B800023400340E34083425
:0833C00008340B340C34023414
:0833C80000340E340A340A340B
:0833D0006034043402340034BF
:0833D8000B34123451340B34A4
:0833E0000B340434EC3400341A
:0833E8000E340C3402340034F1
:0833F0000B34083408340E34DC
:0833F8000C34023400340B34E4
:083400000A340A34C03404341C
:08340800033400340B341234CC
:0834100051340B340B34043479
:08341800EC3400340E340C34D6
:08342000023400340B340834BF
:0834280008340E340C340234A8
:0834300000340B340A340A34A5
:0834380019340434043400349B
:083440000B34123451340B343B
:083448000B340434003400349D
:083450000E340C340234003488
:083458000B34083408340E3473
:083460000C34023400340B347B
:083468000A340A340034053473
:083470000A3415340F340C344A
:083478000D340B3403340B3456
:083480000E3404349E340034C4
:083488000F340C34023400344F
:083490000E34153415340F341D
:0834980004340A3400340F343F
:0834A0000C34023400340E3438
:0834A800163416340F3404340D
:0834B0000A3400340F340C341F
:0834B800023400340E34173415
:0834C00017340F340434013409
:0834C80000340E340B345134C2
:0834D0000E340E340E340934F1
:0834D8000E340E3404340234FA
:0834E00000340F340C340234F7
:0834E80000340E3408340834EE
:0834F0000F3404349C34003455
:0834F8000F340C3402340034DF
:083500000E34153415340F34AC
:083508000434BF3400340F3419
:083510000C34023400340E34C7
:08351800163416340F3404349C
:08352000023400340F340C34B6
:08352800023400340E341734A4
:0835300017340F340334083492
:08353800203403341534213462
:08354000033416342234033475
:08354800173423340434063467
:0835500000341834043409347E
:083558000034503402346034E9
:0835600006340A34043405347A
:0835680000340B3408340A346E
:083570000B340B340234063465
:0835780060340A340434053408
:0835800000340C3408340A3455
:083588000C340C340F340B3439
:083590000C340C3403340C343C
:083598000A340C340234003443
:0835A0000A3408340834063433
:0835A80010340C340A340C3419
:0835B000023400340A3408342F
:0835B800083460340C340234C5
:0835C00000340A34063406341D
:0835C800603402346134023466
:0835D0000A3404340534003410
:0835D8000B3408340A340B34F3
:0835E0000B34023402346134A3
:0835E8000A34043405340034F8
:0835F0000D3408340A340D34D7
:0835F8000D340F340B340D34C7
:083600000D3403340D340A34CB
:083608000C34023400340A34D2
:083610000934093402341034BE
:083618000D340A340C340234B5
:0836200000340A3409340934B6
:0836280061340C34023400345B
:083630000A3402340234613453
:0836380004343C3400340A3470
:08364000083464340A340A3432
:083648000434003400340B349B
:083650000434283400340C346A
:0836580002340B340C340C3475
:08366000093408340C340C3469
:083668000F340A340C340C3459
:083670000434323400340A3442
:08367800083408340A340A3456
:083680000F340C340A340A3443
:083688000434183400340B3443
:083690000C34023400340A344A
:08369800083408340B3404343B
:0836A0003C3400340A34083404
:0836A80065340A340A340434CD
:0836B000003400340B34043433
:0836B800283400340C34023404
:0836C0000B340C340C34093406
:0836C80009340C340C340F34FA
:0836D0000A340C340C340434FC
:0836D800323400340A340834D6
:0836E00009340A340A340F34E6
:0836E8000C340A340A340434E6
:0836F000183400340B340C34D3
:0836F800023400340A340934E5
:0837000009340B340334C0341A
:083708000A34033471340B3460
:08371000033472340C3403345D
:0837180073340D340434013454
:0837200000340E3401340A34B8
:083728000E340E340A3409349A
:083730000E340E3404340F3492
:0837380000340F340A34083498
:083740000F340F340E340E3477
:083748000F340F340D3402347C
:0837500000340F340B34003487
:08375800003401340034043494
:08376000013400340E34023480
:083768000A340E340E340B3458
:0837700009340E340E340D344F
:08377800023400340E340D345C
:08378000003400340134003470
:0837880010340B340E3404343C
:08379000303475340F340C34A1
:08379800023400340E34073442
:0837A00007340F340434003437
:0837A80000340E34083407342C
:0837B0000E340E340434003421
:0837B80000340F340C3402341C
:0837C00000340E340B340B340D
:0837C8000F340434083400340E
:0837D0000E340A3477340E3484
:0837D8000E340D3402340034FC
:0837E0000E340C3401340034F6
:0837E800003400340334753491
:0837F0000E3403340E340F34D3
:0837F8000434003400341034E5
:083800000C34023400340F34D3
:083808000B340B3410340434BE
:083810003034753410340C341F
:08381800023400340F340734C0
:08382000073410340D340234AA
:0838280000340B34333400348A
:083830000034013400340D34B2
:08383800023400340D34303479
:083840000034003401340034AF
:0838480003340B347134033426
:083850000C34723403340D3412
:0838580073340434073400341A
:08386000503404340334003439
:08386800083412345134083415
:08387000083410340834083458
:083878000C3402340034083462
:0838800019341934C03410346E
:083888004834083403344134D4
:083890000934033440340A340A
:08389800033451340B340434F5
:0838A000003400340C34123432
:0838A80051340C340C340434DB
:0838B000013400340D34123420
:0838B80051340D340D340434C9
:0838C000023400340E3412340E
:0838C80051340E340E340434B7
:0838D000033400340F341234FC
:0838D80051340F340F340434A5
:0838E0000434003410341234EA
:0838E8005134103410340E3489
:0838F00046344734113404345E
:0838F8000034003412340C34DA
:083900000234003411340A34D2
:083908000A34123404340034C7
:08391000003412340C340234BF
:083918000034113409340934B4
:0839200012340E340C3408349B
:0839280011340E34113409348E
:083930001234043402340034A7
:0839380013340C340234003496
:0839400012340B340B34133474
:083948000E3411340A3412346C
:08395000043401340034133487
:083958000C3402340034123477
:083960000B340B3413340E3458
:083968000D34083412340E3452
:0839700012340A34113404344E
:083978000234003413340C3456
:083980000234003411340B3451
:083988000B3413340E34123429
:08399000093411340434003441
:08399800003413340C34023436
:0839A000003411340B340B3428
:0839A80013340E340E34083410
:0839B00011340E3411340A3405
:0839B800123404340034003421
:0839C00013340C34023400340E
:0839C80012340B340B341334EC
:0839D0000E34113409341234E5
:0839D8000434013400341334FF
:0839E0000C34023400341234EF
:0839E8000B340B3413341034CE
:0839F000083412340E340E34C9
:0839F8001234083404340334D6
:083A0000003413340C340234CD
:083A0800003408340B340B34C8
:083A100013340E340C3412349F
:083A18000834043404340034C6
:083A200013340C3402340034AD
:083A280008340B340B34133495
:083A30000E340F341234083487
:083A38000334193411340E347B
:083A400008340A341334093480
:083A48001134043414340E346F
:083A500013341434143404345F
:083A5800013400341334013481
:083A60001134133413340C344B
:083A680002340034143411345F
:083A7000113413340E34083444
:083A7800093413340834113441
:083A8000053414340E34133434
:083A8800143414340434013439
:083A9000003413340234113438
:083A9800133413340C34023422
:083AA000003414341134113418
:083AA8001334103412341334FE
:083AB0000E340F3413341334FB
:083AB80004340234003414341C
:083AC0000C340234003413340D
:083AC8000B340B3414340334F9
:083AD000113419340E341034D6
:083AD8001234113403340034F0
:083AE00008340E3411340A34DD
:083AE800133404340A340034E5
:083AF0001434093408341434C5
:083AF80014340E3413341434AD
:083B00001434043401340034D4
:083B08001334013408341334B6
:083B100013340C3402340034BC
:083B180014340834083413349E
:083B20000E3411340934133492
:083B28000434053400341434A8
:083B3000083408341434143485
:083B38000E341334143414346C
:083B4000043401340034133495
:083B4800023408341334133475
:083B50000C340234003414347B
:083B580008340834133403346F
:083B6000083400341034123463
:083B680008340E341034083457
:083B7000083404340034003471
:083B780013340C340234003454
:083B800008340B340B3413343C
:083B880003340B345134043402
:083B9000003400340834043451
:083B980000340034093412343A
:083BA000013409340934033437
:083BA80009340A340434EE3440
:083BB00002340B340C34023422
:083BB80000340A340134013429
:083BC0000B3404340834003416
:083BC800083404340034003419
:083BD0000A34123403340A34F4
:083BD8000A340434EE34023417
:083BE0000B340C3402340034F4
:083BE8000A34033403340B34EA
:083BF0000434043400340B34EA
:083BF8000C34023400340A34DD
:083C0000083408340B340334CE
:083C0800083450340434033485
:083C1000003408341234513471
:083C18000834083410340834AC
:083C200008340C3402340034B6
:083C28000834C034C034193423
:083C30000434043400340834AC
:083C3800123451340834083441
:083C40001034083408340C3480
:083C4800023400340834773423
:083C500077340034043405341C
:083C5800003418340434033475
:083C6000003450340434243414
:083C6800F4340834023408347E
:083C700080340A3403340834E7
:083C7800803410344634083496
:083C8000103447340B340F34FB
:083C880008340B340B34043442
:083C9000EE34023408340C3458
:083C9800023400340B34033444
:083CA0000334083408340A342F
:083CA800033408340434003435
:083CB00000340B340C34023423
:083CB800003408340334033426
:083CC0000B340B340A34033409
:083CC8000834023403340A340D
:083CD0000B340C340234003403
:083CD8000834033403340B34FB
:083CE0000434013400340834FF
:083CE800123451340834083491
:083CF0001034083408341034CC
:083CF80048340B340F3408348A
:083D00000B340B340434EE34E3
:083D0800023408340C340234CB
:083D100000340B3401340134CE
:083D1800083408340A340134B8
:083D20000834043400340034BF
:083D28000B340C3402340034AA
:083D30000834013401340B34A6
:083D38000B340A340134083495
:083D4000023401340A340B3493
:083D48000C340234003408348D
:083D5000013401340B34083486
:083D58000A3407340834043476
:083D6000003400340B340C3474
:083D6800023400340834073472
:083D700007340B340B340A3454
:083D780007340834023407345B
:083D80000A340B340C34023448
:083D880000340834073407344D
:083D90000B340334183408342D
:083D9800033408345034FF3FEE
:00000001FF
