:00300002CE
:003040028E
:003080024E
:0030C0020E
:00310002CD
:003140028D
:003180024D
:0031C0020D
:00320002CC
:003240028C
:083000008134A534053450347D
:08300800441845340034003483
:08301000891804340034003477
:083018008D181034003400345F
:083020009D1815340034003442
:08302800B218723400340034C8
:08303000FF3FFF3FFF3FFF3FA0
:08303800FF3FFF3FFF3FFF3F98
:08304000FF3FFF3FFF3FFF3F90
:08304800FF3FFF3FFF3FFF3F88
:08305000FF3FFF3FFF3FFF3F80
:08305800FF3FFF3FFF3FFF3F78
:08306000FF3FFF3FFF3FFF3F70
:08306800FF3FFF3FFF3FFF3F68
:08307000FF3FFF3FFF3FFF3F60
:08307800FF3FFF3FFF3FFF3F58
:08308000FF3FFF3FFF3FFF3F50
:083088000434023400347534F5
:08309000043401340034313432
:0830980004340034003432342A
:0830A00004342434F4348034BC
:0830A8000434EE340234033459
:0830B0000434EE340234013453
:0830B800043430347534073490
:0830C00004341E340034043412
:0830C80004340A34003405341D
:0830D00004340A34003400341A
:0830D8000134C03477340834E0
:0830E0000134C4340834083443
:0830E8000434F3340034093410
:0830F0001234083409340934DC
:0830F8000D34023400340934E8
:083100000934023400340434E8
:083108000034043404340034E7
:08311000503404340134003492
:08311800503404341634003475
:08312000C03404340A34003409
:08312800773404340434003450
:083130001834043403340034A8
:0831380050340434F334003478
:0831400008340134C034773477
:08314800093402340834093493
:08315000093403340934C434CE
:08315800033418340934033478
:083160000934503403346034DB
:08316800063403346134023423
:083170000334753470340D3492
:083178000234003470343234DB
:08318000003400340134003476
:083188000434003400347134FA
:083190000434003400347234F1
:083198000434003400347334E8
:0831A000043400340034303423
:0831A800043400340034333418
:0831B00004340034003434340F
:0831B80004340034003420341B
:0831C000043400340034213412
:0831C800043400340034223409
:0831D000043400340034233400
:0831D8000434003400345134CA
:0831E00004340034003477349C
:0831E8000434043400341834EF
:0831F0000434003400340834FB
:0831F8001234033408340834DA
:08320000043430347534073446
:083208000D34023400340834D7
:083210000834093400340534D0
:083218000034043400340034DA
:083220000934123403340934AF
:0832280009340434EE340234D1
:083230000A340C3402340034AE
:083238000934033403340A34A5
:0832400004340434003450345E
:08324800FF3FFF3FFF3FFF3F86
:00000001FF
